{
  "_format": "hh-sol-artifact-1",
  "contractName": "AadhaarApplications",
  "sourceName": "contracts/AadhaarApplications.sol",
  "abi": [
    {
      "inputs": [
        {
          "internalType": "address",
          "name": "_admin",
          "type": "address"
        }
      ],
      "stateMutability": "nonpayable",
      "type": "constructor"
    },
    {
      "anonymous": false,
      "inputs": [
        {
          "indexed": true,
          "internalType": "bytes32",
          "name": "recordId",
          "type": "bytes32"
        },
        {
          "indexed": true,
          "internalType": "address",
          "name": "verifier",
          "type": "address"
        }
      ],
      "name": "ApplicationRejected",
      "type": "event"
    },
    {
      "anonymous": false,
      "inputs": [
        {
          "indexed": true,
          "internalType": "bytes32",
          "name": "recordId",
          "type": "bytes32"
        },
        {
          "indexed": true,
          "internalType": "address",
          "name": "revoker",
          "type": "address"
        }
      ],
      "name": "ApplicationRevoked",
      "type": "event"
    },
    {
      "anonymous": false,
      "inputs": [
        {
          "indexed": true,
          "internalType": "bytes32",
          "name": "recordId",
          "type": "bytes32"
        },
        {
          "indexed": false,
          "internalType": "bytes32",
          "name": "hash",
          "type": "bytes32"
        },
        {
          "indexed": false,
          "internalType": "string",
          "name": "cid",
          "type": "string"
        },
        {
          "indexed": true,
          "internalType": "address",
          "name": "applicant",
          "type": "address"
        }
      ],
      "name": "ApplicationSubmitted",
      "type": "event"
    },
    {
      "anonymous": false,
      "inputs": [
        {
          "indexed": true,
          "internalType": "bytes32",
          "name": "recordId",
          "type": "bytes32"
        },
        {
          "indexed": true,
          "internalType": "address",
          "name": "verifier",
          "type": "address"
        }
      ],
      "name": "ApplicationVerified",
      "type": "event"
    },
    {
      "inputs": [],
      "name": "admin",
      "outputs": [
        {
          "internalType": "address",
          "name": "",
          "type": "address"
        }
      ],
      "stateMutability": "view",
      "type": "function"
    },
    {
      "inputs": [
        {
          "internalType": "bytes32",
          "name": "",
          "type": "bytes32"
        }
      ],
      "name": "applications",
      "outputs": [
        {
          "internalType": "bytes32",
          "name": "recordId",
          "type": "bytes32"
        },
        {
          "internalType": "bytes32",
          "name": "hash",
          "type": "bytes32"
        },
        {
          "internalType": "string",
          "name": "cid",
          "type": "string"
        },
        {
          "internalType": "address",
          "name": "applicant",
          "type": "address"
        },
        {
          "internalType": "address",
          "name": "verifier",
          "type": "address"
        },
        {
          "internalType": "enum AadhaarApplications.Status",
          "name": "status",
          "type": "uint8"
        },
        {
          "internalType": "uint256",
          "name": "timestamp",
          "type": "uint256"
        }
      ],
      "stateMutability": "view",
      "type": "function"
    },
    {
      "inputs": [
        {
          "internalType": "bytes32",
          "name": "recordId",
          "type": "bytes32"
        }
      ],
      "name": "getApplication",
      "outputs": [
        {
          "internalType": "bytes32",
          "name": "",
          "type": "bytes32"
        },
        {
          "internalType": "bytes32",
          "name": "",
          "type": "bytes32"
        },
        {
          "internalType": "string",
          "name": "",
          "type": "string"
        },
        {
          "internalType": "address",
          "name": "",
          "type": "address"
        },
        {
          "internalType": "address",
          "name": "",
          "type": "address"
        },
        {
          "internalType": "enum AadhaarApplications.Status",
          "name": "",
          "type": "uint8"
        },
        {
          "internalType": "uint256",
          "name": "",
          "type": "uint256"
        }
      ],
      "stateMutability": "view",
      "type": "function"
    },
    {
      "inputs": [
        {
          "internalType": "bytes32",
          "name": "recordId",
          "type": "bytes32"
        }
      ],
      "name": "rejectApplication",
      "outputs": [],
      "stateMutability": "nonpayable",
      "type": "function"
    },
    {
      "inputs": [
        {
          "internalType": "bytes32",
          "name": "recordId",
          "type": "bytes32"
        }
      ],
      "name": "revokeApplication",
      "outputs": [],
      "stateMutability": "nonpayable",
      "type": "function"
    },
    {
      "inputs": [
        {
          "internalType": "address",
          "name": "newAdmin",
          "type": "address"
        }
      ],
      "name": "setAdmin",
      "outputs": [],
      "stateMutability": "nonpayable",
      "type": "function"
    },
    {
      "inputs": [
        {
          "internalType": "bytes32",
          "name": "recordId",
          "type": "bytes32"
        },
        {
          "internalType": "bytes32",
          "name": "hash",
          "type": "bytes32"
        },
        {
          "internalType": "string",
          "name": "cid",
          "type": "string"
        }
      ],
      "name": "submitApplication",
      "outputs": [],
      "stateMutability": "nonpayable",
      "type": "function"
    },
    {
      "inputs": [
        {
          "internalType": "bytes32",
          "name": "recordId",
          "type": "bytes32"
        }
      ],
      "name": "verifyApplication",
      "outputs": [],
      "stateMutability": "nonpayable",
      "type": "function"
    }
  ],
  "bytecode": "0x60806040523480156200001157600080fd5b506040516200180a3803806200180a8339818101604052810190620000379190620000e8565b806000806101000a81548173ffffffffffffffffffffffffffffffffffffffff021916908373ffffffffffffffffffffffffffffffffffffffff160217905550506200011a565b600080fd5b600073ffffffffffffffffffffffffffffffffffffffff82169050919050565b6000620000b08262000083565b9050919050565b620000c281620000a3565b8114620000ce57600080fd5b50565b600081519050620000e281620000b7565b92915050565b6000602082840312156200010157620001006200007e565b5b60006200011184828501620000d1565b91505092915050565b6116e0806200012a6000396000f3fe608060405234801561001057600080fd5b50600436106100885760003560e01c8063bc506f641161005b578063bc506f6414610117578063eb96cbed1461014d578063f851a44014610169578063fcda35f91461018757610088565b8063079c26071461008d5780634cafa121146100a9578063704b6c02146100df5780638cd8349a146100fb575b600080fd5b6100a760048036038101906100a29190610e0f565b6101a3565b005b6100c360048036038101906100be9190610e83565b6103c7565b6040516100d69796959493929190611020565b60405180910390f35b6100f960048036038101906100f491906110c2565b6104de565b005b61011560048036038101906101109190610e83565b6105af565b005b610131600480360381019061012c9190610e83565b610784565b6040516101449796959493929190611020565b60405180910390f35b61016760048036038101906101629190610e83565b610985565b005b610171610b71565b60405161017e91906110ef565b60405180910390f35b6101a1600480360381019061019c9190610e83565b610b95565b005b6000600160008681526020019081526020016000209050600060048111156101ce576101cd610f90565b5b8160040160149054906101000a900460ff1660048111156101f2576101f1610f90565b5b1415801561023657506001600481111561020f5761020e610f90565b5b8160040160149054906101000a900460ff16600481111561023357610232610f90565b5b14155b156102ce573373ffffffffffffffffffffffffffffffffffffffff168160030160009054906101000a900473ffffffffffffffffffffffffffffffffffffffff1673ffffffffffffffffffffffffffffffffffffffff16146102cd576040517f08c379a00000000000000000000000000000000000000000000000000000000081526004016102c490611156565b60405180910390fd5b5b84816000018190555083816001018190555082828260020191826102f39291906113bc565b50338160030160006101000a81548173ffffffffffffffffffffffffffffffffffffffff021916908373ffffffffffffffffffffffffffffffffffffffff16021790555060018160040160146101000a81548160ff0219169083600481111561035f5761035e610f90565b5b02179055504281600501819055503373ffffffffffffffffffffffffffffffffffffffff16857fd97b75d1116cbf9e5344b022dbd767650a069b286ebebd04e57c79a18718b5658686866040516103b8939291906114c8565b60405180910390a35050505050565b60016020528060005260406000206000915090508060000154908060010154908060020180546103f6906111df565b80601f0160208091040260200160405190810160405280929190818152602001828054610422906111df565b801561046f5780601f106104445761010080835404028352916020019161046f565b820191906000526020600020905b81548152906001019060200180831161045257829003601f168201915b5050505050908060030160009054906101000a900473ffffffffffffffffffffffffffffffffffffffff16908060040160009054906101000a900473ffffffffffffffffffffffffffffffffffffffff16908060040160149054906101000a900460ff16908060050154905087565b60008054906101000a900473ffffffffffffffffffffffffffffffffffffffff1673ffffffffffffffffffffffffffffffffffffffff163373ffffffffffffffffffffffffffffffffffffffff161461056c576040517f08c379a000000000000000000000000000000000000000000000000000000000815260040161056390611546565b60405180910390fd5b806000806101000a81548173ffffffffffffffffffffffffffffffffffffffff021916908373ffffffffffffffffffffffffffffffffffffffff16021790555050565b60008054906101000a900473ffffffffffffffffffffffffffffffffffffffff1673ffffffffffffffffffffffffffffffffffffffff163373ffffffffffffffffffffffffffffffffffffffff161461063d576040517f08c379a000000000000000000000000000000000000000000000000000000000815260040161063490611546565b60405180910390fd5b60006001600083815260200190815260200160002090506001600481111561066857610667610f90565b5b8160040160149054906101000a900460ff16600481111561068c5761068b610f90565b5b146106cc576040517f08c379a00000000000000000000000000000000000000000000000000000000081526004016106c3906115b2565b60405180910390fd5b60028160040160146101000a81548160ff021916908360048111156106f4576106f3610f90565b5b0217905550338160040160006101000a81548173ffffffffffffffffffffffffffffffffffffffff021916908373ffffffffffffffffffffffffffffffffffffffff1602179055503373ffffffffffffffffffffffffffffffffffffffff16827f238c7252698250ee4e4bd615b6b956e1e5097a0c1536a9ea33ae164324cd819e60405160405180910390a35050565b60008060606000806000806000600160008a81526020019081526020016000206040518060e001604052908160008201548152602001600182015481526020016002820180546107d3906111df565b80601f01602080910402602001604051908101604052809291908181526020018280546107ff906111df565b801561084c5780601f106108215761010080835404028352916020019161084c565b820191906000526020600020905b81548152906001019060200180831161082f57829003601f168201915b505050505081526020016003820160009054906101000a900473ffffffffffffffffffffffffffffffffffffffff1673ffffffffffffffffffffffffffffffffffffffff1673ffffffffffffffffffffffffffffffffffffffff1681526020016004820160009054906101000a900473ffffffffffffffffffffffffffffffffffffffff1673ffffffffffffffffffffffffffffffffffffffff1673ffffffffffffffffffffffffffffffffffffffff1681526020016004820160149054906101000a900460ff16600481111561092657610925610f90565b5b600481111561093857610937610f90565b5b81526020016005820154815250509050806000015181602001518260400151836060015184608001518560a001518660c00151975097509750975097509750975050919395979092949650565b6000600160008381526020019081526020016000209050600060048111156109b0576109af610f90565b5b8160040160149054906101000a900460ff1660048111156109d4576109d3610f90565b5b03610a14576040517f08c379a0000000000000000000000000000000000000000000000000000000008152600401610a0b9061161e565b60405180910390fd5b8060030160009054906101000a900473ffffffffffffffffffffffffffffffffffffffff1673ffffffffffffffffffffffffffffffffffffffff163373ffffffffffffffffffffffffffffffffffffffff161480610abd575060008054906101000a900473ffffffffffffffffffffffffffffffffffffffff1673ffffffffffffffffffffffffffffffffffffffff163373ffffffffffffffffffffffffffffffffffffffff16145b610afc576040517f08c379a0000000000000000000000000000000000000000000000000000000008152600401610af39061168a565b60405180910390fd5b60048160040160146101000a81548160ff02191690836004811115610b2457610b23610f90565b5b02179055503373ffffffffffffffffffffffffffffffffffffffff16827fe0c10c89a1feb06f758f4a24191e541a0be3b744a03b6b2fbc3e59820d144c2760405160405180910390a35050565b60008054906101000a900473ffffffffffffffffffffffffffffffffffffffff1681565b60008054906101000a900473ffffffffffffffffffffffffffffffffffffffff1673ffffffffffffffffffffffffffffffffffffffff163373ffffffffffffffffffffffffffffffffffffffff1614610c23576040517f08c379a0000000000000000000000000000000000000000000000000000000008152600401610c1a90611546565b60405180910390fd5b600060016000838152602001908152602001600020905060016004811115610c4e57610c4d610f90565b5b8160040160149054906101000a900460ff166004811115610c7257610c71610f90565b5b14610cb2576040517f08c379a0000000000000000000000000000000000000000000000000000000008152600401610ca9906115b2565b60405180910390fd5b60038160040160146101000a81548160ff02191690836004811115610cda57610cd9610f90565b5b0217905550338160040160006101000a81548173ffffffffffffffffffffffffffffffffffffffff021916908373ffffffffffffffffffffffffffffffffffffffff1602179055503373ffffffffffffffffffffffffffffffffffffffff16827f27d0945fb3636f7a4272436530402ff31ba7a064fc919ac3cd28de806e88b27a60405160405180910390a35050565b600080fd5b600080fd5b6000819050919050565b610d8781610d74565b8114610d9257600080fd5b50565b600081359050610da481610d7e565b92915050565b600080fd5b600080fd5b600080fd5b60008083601f840112610dcf57610dce610daa565b5b8235905067ffffffffffffffff811115610dec57610deb610daf565b5b602083019150836001820283011115610e0857610e07610db4565b5b9250929050565b60008060008060608587031215610e2957610e28610d6a565b5b6000610e3787828801610d95565b9450506020610e4887828801610d95565b935050604085013567ffffffffffffffff811115610e6957610e68610d6f565b5b610e7587828801610db9565b925092505092959194509250565b600060208284031215610e9957610e98610d6a565b5b6000610ea784828501610d95565b91505092915050565b610eb981610d74565b82525050565b600081519050919050565b600082825260208201905092915050565b60005b83811015610ef9578082015181840152602081019050610ede565b60008484015250505050565b6000601f19601f8301169050919050565b6000610f2182610ebf565b610f2b8185610eca565b9350610f3b818560208601610edb565b610f4481610f05565b840191505092915050565b600073ffffffffffffffffffffffffffffffffffffffff82169050919050565b6000610f7a82610f4f565b9050919050565b610f8a81610f6f565b82525050565b7f4e487b7100000000000000000000000000000000000000000000000000000000600052602160045260246000fd5b60058110610fd057610fcf610f90565b5b50565b6000819050610fe182610fbf565b919050565b6000610ff182610fd3565b9050919050565b61100181610fe6565b82525050565b6000819050919050565b61101a81611007565b82525050565b600060e082019050611035600083018a610eb0565b6110426020830189610eb0565b81810360408301526110548188610f16565b90506110636060830187610f81565b6110706080830186610f81565b61107d60a0830185610ff8565b61108a60c0830184611011565b98975050505050505050565b61109f81610f6f565b81146110aa57600080fd5b50565b6000813590506110bc81611096565b92915050565b6000602082840312156110d8576110d7610d6a565b5b60006110e6848285016110ad565b91505092915050565b60006020820190506111046000830184610f81565b92915050565b7f6f6e6c79206170706c6963616e742063616e2072657375626d69740000000000600082015250565b6000611140601b83610eca565b915061114b8261110a565b602082019050919050565b6000602082019050818103600083015261116f81611133565b9050919050565b600082905092915050565b7f4e487b7100000000000000000000000000000000000000000000000000000000600052604160045260246000fd5b7f4e487b7100000000000000000000000000000000000000000000000000000000600052602260045260246000fd5b600060028204905060018216806111f757607f821691505b60208210810361120a576112096111b0565b5b50919050565b60008190508160005260206000209050919050565b60006020601f8301049050919050565b600082821b905092915050565b6000600883026112727fffffffffffffffffffffffffffffffffffffffffffffffffffffffffffffffff82611235565b61127c8683611235565b95508019841693508086168417925050509392505050565b6000819050919050565b60006112b96112b46112af84611007565b611294565b611007565b9050919050565b6000819050919050565b6112d38361129e565b6112e76112df826112c0565b848454611242565b825550505050565b600090565b6112fc6112ef565b6113078184846112ca565b505050565b5b8181101561132b576113206000826112f4565b60018101905061130d565b5050565b601f8211156113705761134181611210565b61134a84611225565b81016020851015611359578190505b61136d61136585611225565b83018261130c565b50505b505050565b600082821c905092915050565b600061139360001984600802611375565b1980831691505092915050565b60006113ac8383611382565b9150826002028217905092915050565b6113c68383611176565b67ffffffffffffffff8111156113df576113de611181565b5b6113e982546111df565b6113f482828561132f565b6000601f8311600181146114235760008415611411578287013590505b61141b85826113a0565b865550611483565b601f19841661143186611210565b60005b8281101561145957848901358255600182019150602085019450602081019050611434565b868310156114765784890135611472601f891682611382565b8355505b6001600288020188555050505b50505050505050565b82818337600083830152505050565b60006114a78385610eca565b93506114b483858461148c565b6114bd83610f05565b840190509392505050565b60006040820190506114dd6000830186610eb0565b81810360208301526114f081848661149b565b9050949350505050565b7f61646d696e206f6e6c7900000000000000000000000000000000000000000000600082015250565b6000611530600a83610eca565b915061153b826114fa565b602082019050919050565b6000602082019050818103600083015261155f81611523565b9050919050565b7f6e6f74207375626d697474656400000000000000000000000000000000000000600082015250565b600061159c600d83610eca565b91506115a782611566565b602082019050919050565b600060208201905081810360008301526115cb8161158f565b9050919050565b7f6e6f206170706c69636174696f6e000000000000000000000000000000000000600082015250565b6000611608600e83610eca565b9150611613826115d2565b602082019050919050565b60006020820190508181036000830152611637816115fb565b9050919050565b7f6e6f7420616c6c6f776564000000000000000000000000000000000000000000600082015250565b6000611674600b83610eca565b915061167f8261163e565b602082019050919050565b600060208201905081810360008301526116a381611667565b905091905056fea26469706673582212202c5f05faadf452af72d7cfda8f3e2c293f700cea7ec00253260d97f531214c3f64736f6c63430008110033",
  "linkReferences": {},
  "deployedLinkReferences": {}
}